{
  "_format": "hh-sol-artifact-1",
  "contractName": "ModifyVariable",
  "sourceName": "contracts/ModifyVariable.sol",
  "abi": [
    {
      "inputs": [
        {
          "internalType": "uint256",
          "name": "_x",
          "type": "uint256"
        }
      ],
      "stateMutability": "nonpayable",
      "type": "constructor"
    },
    {
      "inputs": [],
      "name": "label",
      "outputs": [
        {
          "internalType": "string",
          "name": "",
          "type": "string"
        }
      ],
      "stateMutability": "view",
      "type": "function"
    },
    {
      "inputs": [],
      "name": "modifyToLeet",
      "outputs": [],
      "stateMutability": "nonpayable",
      "type": "function"
    },
    {
      "inputs": [
        {
          "internalType": "string",
          "name": "_label",
          "type": "string"
        }
      ],
      "name": "setLabel",
      "outputs": [],
      "stateMutability": "nonpayable",
      "type": "function"
    },
    {
      "inputs": [],
      "name": "x",
      "outputs": [
        {
          "internalType": "uint256",
          "name": "",
          "type": "uint256"
        }
      ],
      "stateMutability": "view",
      "type": "function"
    }
  ],
  "bytecode": "0x608060405234801561001057600080fd5b50604051610b04380380610b04833981810160405281019061003291906100bf565b806000819055506040518060400160405280600581526020017f626c616e6b0000000000000000000000000000000000000000000000000000008152506001908161007d9190610332565b5050610404565b600080fd5b6000819050919050565b61009c81610089565b81146100a757600080fd5b50565b6000815190506100b981610093565b92915050565b6000602082840312156100d5576100d4610084565b5b60006100e3848285016100aa565b91505092915050565b600081519050919050565b7f4e487b7100000000000000000000000000000000000000000000000000000000600052604160045260246000fd5b7f4e487b7100000000000000000000000000000000000000000000000000000000600052602260045260246000fd5b6000600282049050600182168061016d57607f821691505b6020821081036101805761017f610126565b5b50919050565b60008190508160005260206000209050919050565b60006020601f8301049050919050565b600082821b905092915050565b6000600883026101e87fffffffffffffffffffffffffffffffffffffffffffffffffffffffffffffffff826101ab565b6101f286836101ab565b95508019841693508086168417925050509392505050565b6000819050919050565b600061022f61022a61022584610089565b61020a565b610089565b9050919050565b6000819050919050565b61024983610214565b61025d61025582610236565b8484546101b8565b825550505050565b600090565b610272610265565b61027d818484610240565b505050565b5b818110156102a15761029660008261026a565b600181019050610283565b5050565b601f8211156102e6576102b781610186565b6102c08461019b565b810160208510156102cf578190505b6102e36102db8561019b565b830182610282565b50505b505050565b600082821c905092915050565b6000610309600019846008026102eb565b1980831691505092915050565b600061032283836102f8565b9150826002028217905092915050565b61033b826100ec565b67ffffffffffffffff811115610354576103536100f7565b5b61035e8254610155565b6103698282856102a5565b600060209050601f83116001811461039c576000841561038a578287015190505b6103948582610316565b8655506103fc565b601f1984166103aa86610186565b60005b828110156103d2578489015182556001820191506020850194506020810190506103ad565b868310156103ef57848901516103eb601f8916826102f8565b8355505b6001600288020188555050505b505050505050565b6106f1806104136000396000f3fe608060405234801561001057600080fd5b506004361061004c5760003560e01c80630c55699c14610051578063bf5309691461006f578063cb4774c41461008b578063e1640622146100a9575b600080fd5b6100596100b3565b604051610066919061017e565b60405180910390f35b610089600480360381019061008491906102f3565b6100b9565b005b6100936100cc565b6040516100a091906103bb565b60405180910390f35b6100b161015a565b005b60005481565b80600190816100c891906105e9565b5050565b600180546100d99061040c565b80601f01602080910402602001604051908101604052809291908181526020018280546101059061040c565b80156101525780601f1061012757610100808354040283529160200191610152565b820191906000526020600020905b81548152906001019060200180831161013557829003601f168201915b505050505081565b610539600081905550565b6000819050919050565b61017881610165565b82525050565b6000602082019050610193600083018461016f565b92915050565b6000604051905090565b600080fd5b600080fd5b600080fd5b600080fd5b6000601f19601f8301169050919050565b7f4e487b7100000000000000000000000000000000000000000000000000000000600052604160045260246000fd5b610200826101b7565b810181811067ffffffffffffffff8211171561021f5761021e6101c8565b5b80604052505050565b6000610232610199565b905061023e82826101f7565b919050565b600067ffffffffffffffff82111561025e5761025d6101c8565b5b610267826101b7565b9050602081019050919050565b82818337600083830152505050565b600061029661029184610243565b610228565b9050828152602081018484840111156102b2576102b16101b2565b5b6102bd848285610274565b509392505050565b600082601f8301126102da576102d96101ad565b5b81356102ea848260208601610283565b91505092915050565b600060208284031215610309576103086101a3565b5b600082013567ffffffffffffffff811115610327576103266101a8565b5b610333848285016102c5565b91505092915050565b600081519050919050565b600082825260208201905092915050565b60005b8381101561037657808201518184015260208101905061035b565b60008484015250505050565b600061038d8261033c565b6103978185610347565b93506103a7818560208601610358565b6103b0816101b7565b840191505092915050565b600060208201905081810360008301526103d58184610382565b905092915050565b7f4e487b7100000000000000000000000000000000000000000000000000000000600052602260045260246000fd5b6000600282049050600182168061042457607f821691505b602082108103610437576104366103dd565b5b50919050565b60008190508160005260206000209050919050565b60006020601f8301049050919050565b600082821b905092915050565b60006008830261049f7fffffffffffffffffffffffffffffffffffffffffffffffffffffffffffffffff82610462565b6104a98683610462565b95508019841693508086168417925050509392505050565b6000819050919050565b60006104e66104e16104dc84610165565b6104c1565b610165565b9050919050565b6000819050919050565b610500836104cb565b61051461050c826104ed565b84845461046f565b825550505050565b600090565b61052961051c565b6105348184846104f7565b505050565b5b818110156105585761054d600082610521565b60018101905061053a565b5050565b601f82111561059d5761056e8161043d565b61057784610452565b81016020851015610586578190505b61059a61059285610452565b830182610539565b50505b505050565b600082821c905092915050565b60006105c0600019846008026105a2565b1980831691505092915050565b60006105d983836105af565b9150826002028217905092915050565b6105f28261033c565b67ffffffffffffffff81111561060b5761060a6101c8565b5b610615825461040c565b61062082828561055c565b600060209050601f8311600181146106535760008415610641578287015190505b61064b85826105cd565b8655506106b3565b601f1984166106618661043d565b60005b8281101561068957848901518255600182019150602085019450602081019050610664565b868310156106a657848901516106a2601f8916826105af565b8355505b6001600288020188555050505b50505050505056fea26469706673582212208dda694848bf9dfff7637b63745262a634cd93736d9c26707381fa4fed4f3b1964736f6c634300081c0033",
  "linkReferences": {},
  "deployedLinkReferences": {}
}